{
  "contractName": "AdvanceStorage",
  "abi": [
    {
      "constant": true,
      "inputs": [
        {
          "name": "",
          "type": "uint256"
        }
      ],
      "name": "ids",
      "outputs": [
        {
          "name": "",
          "type": "uint256"
        }
      ],
      "payable": false,
      "stateMutability": "view",
      "type": "function"
    },
    {
      "constant": false,
      "inputs": [
        {
          "name": "_id",
          "type": "uint256"
        }
      ],
      "name": "add",
      "outputs": [],
      "payable": false,
      "stateMutability": "nonpayable",
      "type": "function"
    },
    {
      "constant": true,
      "inputs": [
        {
          "name": "_i",
          "type": "uint256"
        }
      ],
      "name": "get",
      "outputs": [
        {
          "name": "",
          "type": "uint256"
        }
      ],
      "payable": false,
      "stateMutability": "view",
      "type": "function"
    },
    {
      "constant": true,
      "inputs": [],
      "name": "getAll",
      "outputs": [
        {
          "name": "",
          "type": "uint256[]"
        }
      ],
      "payable": false,
      "stateMutability": "view",
      "type": "function"
    },
    {
      "constant": true,
      "inputs": [],
      "name": "length",
      "outputs": [
        {
          "name": "",
          "type": "uint256"
        }
      ],
      "payable": false,
      "stateMutability": "view",
      "type": "function"
    }
  ],
  "bytecode": "0x608060405234801561001057600080fd5b5061028b806100206000396000f3fe608060405234801561001057600080fd5b50600436106100575760003560e01c80631003e2d21461005c5780631f7b6d321461008a57806353ed5143146100a85780639507d39a14610107578063fac333ac14610149575b600080fd5b6100886004803603602081101561007257600080fd5b810190808035906020019092919050505061018b565b005b6100926101ba565b6040518082815260200191505060405180910390f35b6100b06101c6565b6040518080602001828103825283818151815260200191508051906020019060200280838360005b838110156100f35780820151818401526020810190506100d8565b505050509050019250505060405180910390f35b6101336004803603602081101561011d57600080fd5b810190808035906020019092919050505061021e565b6040518082815260200191505060405180910390f35b6101756004803603602081101561015f57600080fd5b810190808035906020019092919050505061023e565b6040518082815260200191505060405180910390f35b600081908060018154018082558091505090600182039060005260206000200160009091929091909150555050565b60008080549050905090565b6060600080548060200260200160405190810160405280929190818152602001828054801561021457602002820191906000526020600020905b815481526020019060010190808311610200575b5050505050905090565b600080828154811061022c57fe5b90600052602060002001549050919050565b6000818154811061024b57fe5b90600052602060002001600091509050548156fea165627a7a7230582008cbd8530641d54f7d0492ec60b0a26a602eac4ae66f710f31684ddadb152a7f0029",
  "source": "pragma solidity  ^0.5.2;\r\n\r\n/**\r\n * The  contract does this and that...\r\n */\r\ncontract AdvanceStorage  {\r\n\tuint[] public ids;\r\n\tfunction add (uint _id) public {//add the element to the arrary\r\n\t\tids.push(_id);\t\t\t\t\r\n\t}\r\n\tfunction get (uint _i) view public returns(uint) {//return any element to the array\r\n\t\treturn ids[_i];\t\t\t\r\n\t\t}\r\n\tfunction getAll () view public returns(uint[] memory) {//return all the element to the array\r\n\t\treturn ids;\r\n\t}\r\n\tfunction length () view public returns(uint) {//return length of the array\r\n\t\treturn ids.length;\r\n\t}\r\n\t\r\n\t\r\n\t\t\t\r\n}\r\n\r\n",
  "sourcePath": "C:/Users/keval/Desktop/project/petshop2/contracts/AdvanceStorage.sol",
  "compiler": {
    "name": "solc",
    "version": "0.5.8+commit.23d335f2.Emscripten.clang"
  },
  "schemaVersion": "3.0.14",
  "updatedAt": "2019-09-08T09:44:15.667Z",
  "devdoc": {
    "methods": {}
  },
  "userdoc": {
    "methods": {},
    "notice": "The  contract does this and that...\r"
  }
}