{
  "contractName": "CRUD",
  "abi": [
    {
      "constant": true,
      "inputs": [
        {
          "name": "",
          "type": "uint256"
        }
      ],
      "name": "users",
      "outputs": [
        {
          "name": "id",
          "type": "uint256"
        },
        {
          "name": "name",
          "type": "string"
        }
      ],
      "payable": false,
      "stateMutability": "view",
      "type": "function"
    },
    {
      "constant": true,
      "inputs": [],
      "name": "nextId",
      "outputs": [
        {
          "name": "",
          "type": "uint256"
        }
      ],
      "payable": false,
      "stateMutability": "view",
      "type": "function"
    },
    {
      "constant": false,
      "inputs": [
        {
          "name": "name",
          "type": "string"
        }
      ],
      "name": "create",
      "outputs": [],
      "payable": false,
      "stateMutability": "nonpayable",
      "type": "function"
    },
    {
      "constant": true,
      "inputs": [
        {
          "name": "id",
          "type": "uint256"
        }
      ],
      "name": "read",
      "outputs": [
        {
          "name": "",
          "type": "uint256"
        },
        {
          "name": "",
          "type": "string"
        }
      ],
      "payable": false,
      "stateMutability": "view",
      "type": "function"
    },
    {
      "constant": false,
      "inputs": [
        {
          "name": "id",
          "type": "uint256"
        },
        {
          "name": "name",
          "type": "string"
        }
      ],
      "name": "update",
      "outputs": [],
      "payable": false,
      "stateMutability": "nonpayable",
      "type": "function"
    },
    {
      "constant": false,
      "inputs": [
        {
          "name": "id",
          "type": "uint256"
        }
      ],
      "name": "destroy",
      "outputs": [],
      "payable": false,
      "stateMutability": "nonpayable",
      "type": "function"
    }
  ],
  "bytecode": "0x60806040526001805534801561001457600080fd5b506108be806100246000396000f3fe608060405234801561001057600080fd5b50600436106100625760003560e01c8063365b98b21461006757806361b8ce8c146101155780639d11877014610133578063b6a46b3b14610161578063ed2e5a971461021c578063f745630f146102ca575b600080fd5b6100936004803603602081101561007d57600080fd5b810190808035906020019092919050505061038f565b6040518083815260200180602001828103825283818151815260200191508051906020019080838360005b838110156100d95780820151818401526020810190506100be565b50505050905090810190601f1680156101065780820380516001836020036101000a031916815260200191505b50935050505060405180910390f35b61011d610458565b6040518082815260200191505060405180910390f35b61015f6004803603602081101561014957600080fd5b810190808035906020019092919050505061045e565b005b61021a6004803603602081101561017757600080fd5b810190808035906020019064010000000081111561019457600080fd5b8201836020820111156101a657600080fd5b803590602001918460018302840111640100000000831117156101c857600080fd5b91908080601f016020809104026020016040519081016040528093929190818152602001838380828437600081840152601f19601f8201169050808301925050505050505091929192905050506104a5565b005b6102486004803603602081101561023257600080fd5b8101908080359060200190929190505050610528565b6040518083815260200180602001828103825283818151815260200191508051906020019080838360005b8381101561028e578082015181840152602081019050610273565b50505050905090810190601f1680156102bb5780820380516001836020036101000a031916815260200191505b50935050505060405180910390f35b61038d600480360360408110156102e057600080fd5b81019080803590602001909291908035906020019064010000000081111561030757600080fd5b82018360208201111561031957600080fd5b8035906020019184600183028401116401000000008311171561033b57600080fd5b91908080601f016020809104026020016040519081016040528093929190818152602001838380828437600081840152601f19601f82011690508083019250505050505050919291929050505061061c565b005b6000818154811061039c57fe5b9060005260206000209060020201600091509050806000015490806001018054600181600116156101000203166002900480601f01602080910402602001604051908101604052809291908181526020018280546001816001161561010002031660029004801561044e5780601f106104235761010080835404028352916020019161044e565b820191906000526020600020905b81548152906001019060200180831161043157829003601f168201915b5050505050905082565b60015481565b600061046982610661565b90506000818154811061047857fe5b906000526020600020906002020160008082016000905560018201600061049f9190610725565b50505050565b600060405180604001604052806001548152602001838152509080600181540180825580915050906001820390600052602060002090600202016000909192909190915060008201518160000155602082015181600101908051906020019061050f92919061076d565b5050505060016000815480929190600101919050555050565b60006060600061053784610661565b90506000818154811061054657fe5b9060005260206000209060020201600001546000828154811061056557fe5b9060005260206000209060020201600101808054600181600116156101000203166002900480601f01602080910402602001604051908101604052809291908181526020018280546001816001161561010002031660029004801561060b5780601f106105e05761010080835404028352916020019161060b565b820191906000526020600020905b8154815290600101906020018083116105ee57829003601f168201915b505050505090509250925050915091565b600061062783610661565b9050816000828154811061063757fe5b9060005260206000209060020201600101908051906020019061065b9291906107ed565b50505050565b600080600090505b60008054905081116106b157826000828154811061068357fe5b90600052602060002090600202016000015414156106a45780915050610720565b8080600101915050610669565b506040517f08c379a00000000000000000000000000000000000000000000000000000000081526004018080602001828103825260158152602001807f557365727320646f6573206e6f7420657869737421000000000000000000000081525060200191505060405180910390fd5b919050565b50805460018160011615610100020316600290046000825580601f1061074b575061076a565b601f016020900490600052602060002090810190610769919061086d565b5b50565b828054600181600116156101000203166002900490600052602060002090601f016020900481019282601f106107ae57805160ff19168380011785556107dc565b828001600101855582156107dc579182015b828111156107db5782518255916020019190600101906107c0565b5b5090506107e9919061086d565b5090565b828054600181600116156101000203166002900490600052602060002090601f016020900481019282601f1061082e57805160ff191683800117855561085c565b8280016001018555821561085c579182015b8281111561085b578251825591602001919060010190610840565b5b509050610869919061086d565b5090565b61088f91905b8082111561088b576000816000905550600101610873565b5090565b9056fea165627a7a72305820392bcb7a9f6d907ee87e8f78d6dff763acc21771e4c3b3972c978ecce2cc46dd0029",
  "source": "pragma solidity ^0.5.0;\r\ncontract CRUD{\r\n\t\r\n\tstruct User{\r\n\t\tuint id;\r\n\t\tstring name;\r\n\t}\r\n\tUser[] public users;\r\n\tuint public nextId=1;\r\n\r\n\tfunction create(string memory name) public{\r\n\t\tusers.push(User(nextId,name));\r\n\t\tnextId++;\r\n\t}\r\n\r\n\tfunction read(uint id) view public returns(uint, string memory){\r\n\t\tuint i=find(id);\r\n\t\treturn(users[i].id,users[i].name);\r\n\t}\r\n\t\r\n\tfunction update(uint id, string memory name) public {\r\n\t\tuint i=find(id);\r\n\t\tusers[i].name=name;\r\n\t}\r\n\tfunction destroy(uint id) public{\r\n\t\tuint i=find(id);\r\n\t\tdelete users[i];\r\n\t}\r\n\tfunction  find (uint id) view internal returns(uint) {\r\n\t\tfor(uint i=0;i<=users.length;i++){\r\n\t\tif(users[i].id==id){\r\n\t\t\treturn i;\r\n\t\t}\r\n\t\t}\r\n\t\trevert('Users does not exist!');\r\n\t}\r\n\t\r\n}",
  "sourcePath": "C:/Users/keval/Desktop/project/petshop2/contracts/CRUD.sol",
  "compiler": {
    "name": "solc",
    "version": "0.5.8+commit.23d335f2.Emscripten.clang"
  },
  "schemaVersion": "3.0.14",
  "updatedAt": "2019-09-08T09:44:16.720Z",
  "devdoc": {
    "methods": {}
  },
  "userdoc": {
    "methods": {}
  }
}